{
  "_format": "hh-sol-artifact-1",
  "contractName": "Raider",
  "sourceName": "contracts/Raider.sol",
  "abi": [
    {
      "inputs": [],
      "stateMutability": "nonpayable",
      "type": "constructor"
    },
    {
      "anonymous": false,
      "inputs": [
        {
          "indexed": true,
          "internalType": "address",
          "name": "owner",
          "type": "address"
        },
        {
          "indexed": true,
          "internalType": "address",
          "name": "approved",
          "type": "address"
        },
        {
          "indexed": true,
          "internalType": "uint256",
          "name": "tokenId",
          "type": "uint256"
        }
      ],
      "name": "Approval",
      "type": "event"
    },
    {
      "anonymous": false,
      "inputs": [
        {
          "indexed": true,
          "internalType": "address",
          "name": "owner",
          "type": "address"
        },
        {
          "indexed": true,
          "internalType": "address",
          "name": "operator",
          "type": "address"
        },
        {
          "indexed": false,
          "internalType": "bool",
          "name": "approved",
          "type": "bool"
        }
      ],
      "name": "ApprovalForAll",
      "type": "event"
    },
    {
      "anonymous": false,
      "inputs": [
        {
          "indexed": true,
          "internalType": "address",
          "name": "previousOwner",
          "type": "address"
        },
        {
          "indexed": true,
          "internalType": "address",
          "name": "newOwner",
          "type": "address"
        }
      ],
      "name": "OwnershipTransferred",
      "type": "event"
    },
    {
      "anonymous": false,
      "inputs": [
        {
          "indexed": true,
          "internalType": "uint256",
          "name": "discord_id",
          "type": "uint256"
        },
        {
          "indexed": true,
          "internalType": "address",
          "name": "wallet",
          "type": "address"
        },
        {
          "indexed": true,
          "internalType": "uint256",
          "name": "raider_id",
          "type": "uint256"
        }
      ],
      "name": "RaiderMinted",
      "type": "event"
    },
    {
      "anonymous": false,
      "inputs": [
        {
          "indexed": true,
          "internalType": "address",
          "name": "from",
          "type": "address"
        },
        {
          "indexed": true,
          "internalType": "address",
          "name": "to",
          "type": "address"
        },
        {
          "indexed": true,
          "internalType": "uint256",
          "name": "tokenId",
          "type": "uint256"
        }
      ],
      "name": "Transfer",
      "type": "event"
    },
    {
      "inputs": [
        {
          "internalType": "uint256",
          "name": "",
          "type": "uint256"
        }
      ],
      "name": "Raiders",
      "outputs": [
        {
          "internalType": "address",
          "name": "wallet",
          "type": "address"
        },
        {
          "internalType": "uint256",
          "name": "raider_id",
          "type": "uint256"
        },
        {
          "internalType": "string",
          "name": "primary_skill",
          "type": "string"
        },
        {
          "internalType": "string",
          "name": "secondary_skill",
          "type": "string"
        }
      ],
      "stateMutability": "view",
      "type": "function"
    },
    {
      "inputs": [
        {
          "internalType": "address",
          "name": "to",
          "type": "address"
        },
        {
          "internalType": "uint256",
          "name": "tokenId",
          "type": "uint256"
        }
      ],
      "name": "approve",
      "outputs": [],
      "stateMutability": "nonpayable",
      "type": "function"
    },
    {
      "inputs": [
        {
          "internalType": "uint256",
          "name": "discord_id",
          "type": "uint256"
        },
        {
          "internalType": "address",
          "name": "_wallet",
          "type": "address"
        }
      ],
      "name": "authenticate",
      "outputs": [],
      "stateMutability": "nonpayable",
      "type": "function"
    },
    {
      "inputs": [
        {
          "internalType": "address",
          "name": "owner",
          "type": "address"
        }
      ],
      "name": "balanceOf",
      "outputs": [
        {
          "internalType": "uint256",
          "name": "",
          "type": "uint256"
        }
      ],
      "stateMutability": "view",
      "type": "function"
    },
    {
      "inputs": [
        {
          "internalType": "uint256",
          "name": "nft_id",
          "type": "uint256"
        },
        {
          "internalType": "string",
          "name": "new_uri",
          "type": "string"
        }
      ],
      "name": "changeAvatar",
      "outputs": [],
      "stateMutability": "nonpayable",
      "type": "function"
    },
    {
      "inputs": [
        {
          "internalType": "uint256",
          "name": "discord_id",
          "type": "uint256"
        },
        {
          "internalType": "string",
          "name": "primary",
          "type": "string"
        },
        {
          "internalType": "string",
          "name": "secondary",
          "type": "string"
        }
      ],
      "name": "createProfile",
      "outputs": [],
      "stateMutability": "nonpayable",
      "type": "function"
    },
    {
      "inputs": [
        {
          "internalType": "uint256",
          "name": "tokenId",
          "type": "uint256"
        }
      ],
      "name": "getApproved",
      "outputs": [
        {
          "internalType": "address",
          "name": "",
          "type": "address"
        }
      ],
      "stateMutability": "view",
      "type": "function"
    },
    {
      "inputs": [],
      "name": "id",
      "outputs": [
        {
          "internalType": "uint256",
          "name": "",
          "type": "uint256"
        }
      ],
      "stateMutability": "view",
      "type": "function"
    },
    {
      "inputs": [
        {
          "internalType": "address",
          "name": "owner",
          "type": "address"
        },
        {
          "internalType": "address",
          "name": "operator",
          "type": "address"
        }
      ],
      "name": "isApprovedForAll",
      "outputs": [
        {
          "internalType": "bool",
          "name": "",
          "type": "bool"
        }
      ],
      "stateMutability": "view",
      "type": "function"
    },
    {
      "inputs": [
        {
          "internalType": "uint256",
          "name": "discord_id",
          "type": "uint256"
        },
        {
          "internalType": "string",
          "name": "uri",
          "type": "string"
        }
      ],
      "name": "mintRaider",
      "outputs": [],
      "stateMutability": "nonpayable",
      "type": "function"
    },
    {
      "inputs": [],
      "name": "name",
      "outputs": [
        {
          "internalType": "string",
          "name": "",
          "type": "string"
        }
      ],
      "stateMutability": "view",
      "type": "function"
    },
    {
      "inputs": [],
      "name": "owner",
      "outputs": [
        {
          "internalType": "address",
          "name": "",
          "type": "address"
        }
      ],
      "stateMutability": "view",
      "type": "function"
    },
    {
      "inputs": [
        {
          "internalType": "uint256",
          "name": "tokenId",
          "type": "uint256"
        }
      ],
      "name": "ownerOf",
      "outputs": [
        {
          "internalType": "address",
          "name": "",
          "type": "address"
        }
      ],
      "stateMutability": "view",
      "type": "function"
    },
    {
      "inputs": [],
      "name": "renounceOwnership",
      "outputs": [],
      "stateMutability": "nonpayable",
      "type": "function"
    },
    {
      "inputs": [
        {
          "internalType": "address",
          "name": "from",
          "type": "address"
        },
        {
          "internalType": "address",
          "name": "to",
          "type": "address"
        },
        {
          "internalType": "uint256",
          "name": "tokenId",
          "type": "uint256"
        }
      ],
      "name": "safeTransferFrom",
      "outputs": [],
      "stateMutability": "nonpayable",
      "type": "function"
    },
    {
      "inputs": [
        {
          "internalType": "address",
          "name": "from",
          "type": "address"
        },
        {
          "internalType": "address",
          "name": "to",
          "type": "address"
        },
        {
          "internalType": "uint256",
          "name": "tokenId",
          "type": "uint256"
        },
        {
          "internalType": "bytes",
          "name": "_data",
          "type": "bytes"
        }
      ],
      "name": "safeTransferFrom",
      "outputs": [],
      "stateMutability": "nonpayable",
      "type": "function"
    },
    {
      "inputs": [
        {
          "internalType": "address",
          "name": "operator",
          "type": "address"
        },
        {
          "internalType": "bool",
          "name": "approved",
          "type": "bool"
        }
      ],
      "name": "setApprovalForAll",
      "outputs": [],
      "stateMutability": "nonpayable",
      "type": "function"
    },
    {
      "inputs": [
        {
          "internalType": "bytes4",
          "name": "interfaceId",
          "type": "bytes4"
        }
      ],
      "name": "supportsInterface",
      "outputs": [
        {
          "internalType": "bool",
          "name": "",
          "type": "bool"
        }
      ],
      "stateMutability": "view",
      "type": "function"
    },
    {
      "inputs": [],
      "name": "symbol",
      "outputs": [
        {
          "internalType": "string",
          "name": "",
          "type": "string"
        }
      ],
      "stateMutability": "view",
      "type": "function"
    },
    {
      "inputs": [
        {
          "internalType": "uint256",
          "name": "tokenId",
          "type": "uint256"
        }
      ],
      "name": "tokenURI",
      "outputs": [
        {
          "internalType": "string",
          "name": "",
          "type": "string"
        }
      ],
      "stateMutability": "view",
      "type": "function"
    },
    {
      "inputs": [
        {
          "internalType": "address",
          "name": "from",
          "type": "address"
        },
        {
          "internalType": "address",
          "name": "to",
          "type": "address"
        },
        {
          "internalType": "uint256",
          "name": "tokenId",
          "type": "uint256"
        }
      ],
      "name": "transferFrom",
      "outputs": [],
      "stateMutability": "nonpayable",
      "type": "function"
    },
    {
      "inputs": [
        {
          "internalType": "address",
          "name": "newOwner",
          "type": "address"
        }
      ],
      "name": "transferOwnership",
      "outputs": [],
      "stateMutability": "nonpayable",
      "type": "function"
    }
  ],
  "bytecode": "0x608060405260016009553480156200001657600080fd5b506040518060400160405280601481526020017f526169646572204775696c6420417661746172730000000000000000000000008152506040518060400160405280600681526020017f524149444552000000000000000000000000000000000000000000000000000081525081600090805190602001906200009b929190620001ab565b508060019080519060200190620000b4929190620001ab565b505050620000d7620000cb620000dd60201b60201c565b620000e560201b60201c565b620002c0565b600033905090565b6000600760009054906101000a900473ffffffffffffffffffffffffffffffffffffffff16905081600760006101000a81548173ffffffffffffffffffffffffffffffffffffffff021916908373ffffffffffffffffffffffffffffffffffffffff1602179055508173ffffffffffffffffffffffffffffffffffffffff168173ffffffffffffffffffffffffffffffffffffffff167f8be0079c531659141344cd1fd0a4f28419497f9722a3daafe3b4186f6b6457e060405160405180910390a35050565b828054620001b9906200025b565b90600052602060002090601f016020900481019282620001dd576000855562000229565b82601f10620001f857805160ff191683800117855562000229565b8280016001018555821562000229579182015b82811115620002285782518255916020019190600101906200020b565b5b5090506200023891906200023c565b5090565b5b80821115620002575760008160009055506001016200023d565b5090565b600060028204905060018216806200027457607f821691505b602082108114156200028b576200028a62000291565b5b50919050565b7f4e487b7100000000000000000000000000000000000000000000000000000000600052602260045260246000fd5b6137db80620002d06000396000f3fe608060405234801561001057600080fd5b50600436106101425760003560e01c80638da5cb5b116100b8578063c87b56dd1161007c578063c87b56dd1461034d578063d776f01e1461037d578063dd045d02146103b0578063e985e9c5146103cc578063f2fde38b146103fc578063fde89dad1461041857610142565b80638da5cb5b146102bb57806395d89b41146102d9578063a22cb465146102f7578063af640d0f14610313578063b88d4fde1461033157610142565b806342842e0e1161010a57806342842e0e146101fd57806355a6513814610219578063586ffae8146102355780636352211e1461025157806370a0823114610281578063715018a6146102b157610142565b806301ffc9a71461014757806306fdde0314610177578063081812fc14610195578063095ea7b3146101c557806323b872dd146101e1575b600080fd5b610161600480360381019061015c919061264b565b610434565b60405161016e9190612c07565b60405180910390f35b61017f610516565b60405161018c9190612c22565b60405180910390f35b6101af60048036038101906101aa919061269d565b6105a8565b6040516101bc9190612b4d565b60405180910390f35b6101df60048036038101906101da919061260f565b61062d565b005b6101fb60048036038101906101f69190612509565b610745565b005b61021760048036038101906102129190612509565b6107a5565b005b610233600480360381019061022e9190612702565b6107c5565b005b61024f600480360381019061024a91906126c6565b61090d565b005b61026b6004803603810190610266919061269d565b610966565b6040516102789190612b4d565b60405180910390f35b61029b600480360381019061029691906124a4565b610a18565b6040516102a89190612e84565b60405180910390f35b6102b9610ad0565b005b6102c3610b58565b6040516102d09190612b4d565b60405180910390f35b6102e1610b82565b6040516102ee9190612c22565b60405180910390f35b610311600480360381019061030c91906125d3565b610c14565b005b61031b610c2a565b6040516103289190612e84565b60405180910390f35b61034b60048036038101906103469190612558565b610c30565b005b6103676004803603810190610362919061269d565b610c92565b6040516103749190612c22565b60405180910390f35b6103976004803603810190610392919061269d565b610de4565b6040516103a79493929190612bb4565b60405180910390f35b6103ca60048036038101906103c59190612702565b610f44565b005b6103e660048036038101906103e191906124cd565b611013565b6040516103f39190612c07565b60405180910390f35b610416600480360381019061041191906124a4565b6110a7565b005b610432600480360381019061042d919061275a565b61119f565b005b60007f80ac58cd000000000000000000000000000000000000000000000000000000007bffffffffffffffffffffffffffffffffffffffffffffffffffffffff1916827bffffffffffffffffffffffffffffffffffffffffffffffffffffffff191614806104ff57507f5b5e139f000000000000000000000000000000000000000000000000000000007bffffffffffffffffffffffffffffffffffffffffffffffffffffffff1916827bffffffffffffffffffffffffffffffffffffffffffffffffffffffff1916145b8061050f575061050e826113a1565b5b9050919050565b606060008054610525906130a9565b80601f0160208091040260200160405190810160405280929190818152602001828054610551906130a9565b801561059e5780601f106105735761010080835404028352916020019161059e565b820191906000526020600020905b81548152906001019060200180831161058157829003601f168201915b5050505050905090565b60006105b38261140b565b6105f2576040517f08c379a00000000000000000000000000000000000000000000000000000000081526004016105e990612de4565b60405180910390fd5b6004600083815260200190815260200160002060009054906101000a900473ffffffffffffffffffffffffffffffffffffffff169050919050565b600061063882610966565b90508073ffffffffffffffffffffffffffffffffffffffff168373ffffffffffffffffffffffffffffffffffffffff1614156106a9576040517f08c379a00000000000000000000000000000000000000000000000000000000081526004016106a090612e44565b60405180910390fd5b8073ffffffffffffffffffffffffffffffffffffffff166106c8611477565b73ffffffffffffffffffffffffffffffffffffffff1614806106f757506106f6816106f1611477565b611013565b5b610736576040517f08c379a000000000000000000000000000000000000000000000000000000000815260040161072d90612d24565b60405180910390fd5b610740838361147f565b505050565b610756610750611477565b82611538565b610795576040517f08c379a000000000000000000000000000000000000000000000000000000000815260040161078c90612e64565b60405180910390fd5b6107a0838383611616565b505050565b6107c083838360405180602001604052806000815250610c30565b505050565b6107cd611477565b73ffffffffffffffffffffffffffffffffffffffff166107eb610b58565b73ffffffffffffffffffffffffffffffffffffffff1614610841576040517f08c379a000000000000000000000000000000000000000000000000000000000815260040161083890612e04565b60405180910390fd5b60095460086000858152602001908152602001600020600101819055506108a06008600085815260200190815260200160002060000160009054906101000a900473ffffffffffffffffffffffffffffffffffffffff1660095461187d565b6108f060095483838080601f016020809104026020016040519081016040528093929190818152602001838380828437600081840152601f19601f82011690508083019250505050505050611a57565b600960008154809291906109039061310c565b9190505550505050565b806008600084815260200190815260200160002060000160006101000a81548173ffffffffffffffffffffffffffffffffffffffff021916908373ffffffffffffffffffffffffffffffffffffffff1602179055505050565b6000806002600084815260200190815260200160002060009054906101000a900473ffffffffffffffffffffffffffffffffffffffff169050600073ffffffffffffffffffffffffffffffffffffffff168173ffffffffffffffffffffffffffffffffffffffff161415610a0f576040517f08c379a0000000000000000000000000000000000000000000000000000000008152600401610a0690612d64565b60405180910390fd5b80915050919050565b60008073ffffffffffffffffffffffffffffffffffffffff168273ffffffffffffffffffffffffffffffffffffffff161415610a89576040517f08c379a0000000000000000000000000000000000000000000000000000000008152600401610a8090612d44565b60405180910390fd5b600360008373ffffffffffffffffffffffffffffffffffffffff1673ffffffffffffffffffffffffffffffffffffffff168152602001908152602001600020549050919050565b610ad8611477565b73ffffffffffffffffffffffffffffffffffffffff16610af6610b58565b73ffffffffffffffffffffffffffffffffffffffff1614610b4c576040517f08c379a0000000000000000000000000000000000000000000000000000000008152600401610b4390612e04565b60405180910390fd5b610b566000611acb565b565b6000600760009054906101000a900473ffffffffffffffffffffffffffffffffffffffff16905090565b606060018054610b91906130a9565b80601f0160208091040260200160405190810160405280929190818152602001828054610bbd906130a9565b8015610c0a5780601f10610bdf57610100808354040283529160200191610c0a565b820191906000526020600020905b815481529060010190602001808311610bed57829003601f168201915b5050505050905090565b610c26610c1f611477565b8383611b91565b5050565b60095481565b610c41610c3b611477565b83611538565b610c80576040517f08c379a0000000000000000000000000000000000000000000000000000000008152600401610c7790612e64565b60405180910390fd5b610c8c84848484611cfe565b50505050565b6060610c9d8261140b565b610cdc576040517f08c379a0000000000000000000000000000000000000000000000000000000008152600401610cd390612dc4565b60405180910390fd5b6000600660008481526020019081526020016000208054610cfc906130a9565b80601f0160208091040260200160405190810160405280929190818152602001828054610d28906130a9565b8015610d755780601f10610d4a57610100808354040283529160200191610d75565b820191906000526020600020905b815481529060010190602001808311610d5857829003601f168201915b505050505090506000610d86611d5a565b9050600081511415610d9c578192505050610ddf565b600082511115610dd1578082604051602001610db9929190612b29565b60405160208183030381529060405292505050610ddf565b610dda84611d71565b925050505b919050565b60086020528060005260406000206000915090508060000160009054906101000a900473ffffffffffffffffffffffffffffffffffffffff1690806001015490806002018054610e33906130a9565b80601f0160208091040260200160405190810160405280929190818152602001828054610e5f906130a9565b8015610eac5780601f10610e8157610100808354040283529160200191610eac565b820191906000526020600020905b815481529060010190602001808311610e8f57829003601f168201915b505050505090806003018054610ec1906130a9565b80601f0160208091040260200160405190810160405280929190818152602001828054610eed906130a9565b8015610f3a5780601f10610f0f57610100808354040283529160200191610f3a565b820191906000526020600020905b815481529060010190602001808311610f1d57829003601f168201915b5050505050905084565b610f4c611477565b73ffffffffffffffffffffffffffffffffffffffff16610f6a610b58565b73ffffffffffffffffffffffffffffffffffffffff1614610fc0576040517f08c379a0000000000000000000000000000000000000000000000000000000008152600401610fb790612e04565b60405180910390fd5b61100e8383838080601f016020809104026020016040519081016040528093929190818152602001838380828437600081840152601f19601f82011690508083019250505050505050611a57565b505050565b6000600560008473ffffffffffffffffffffffffffffffffffffffff1673ffffffffffffffffffffffffffffffffffffffff16815260200190815260200160002060008373ffffffffffffffffffffffffffffffffffffffff1673ffffffffffffffffffffffffffffffffffffffff16815260200190815260200160002060009054906101000a900460ff16905092915050565b6110af611477565b73ffffffffffffffffffffffffffffffffffffffff166110cd610b58565b73ffffffffffffffffffffffffffffffffffffffff1614611123576040517f08c379a000000000000000000000000000000000000000000000000000000000815260040161111a90612e04565b60405180910390fd5b600073ffffffffffffffffffffffffffffffffffffffff168173ffffffffffffffffffffffffffffffffffffffff161415611193576040517f08c379a000000000000000000000000000000000000000000000000000000000815260040161118a90612c64565b60405180910390fd5b61119c81611acb565b50565b6111a7611477565b73ffffffffffffffffffffffffffffffffffffffff166111c5610b58565b73ffffffffffffffffffffffffffffffffffffffff161461121b576040517f08c379a000000000000000000000000000000000000000000000000000000000815260040161121290612e04565b60405180910390fd5b611223612189565b84848080601f016020809104026020016040519081016040528093929190818152602001838380828437600081840152601f19601f82011690508083019250505050505050816040018190525082828080601f016020809104026020016040519081016040528093929190818152602001838380828437600081840152601f19601f820116905080830192505050505050508160600181905250806008600088815260200190815260200160002060008201518160000160006101000a81548173ffffffffffffffffffffffffffffffffffffffff021916908373ffffffffffffffffffffffffffffffffffffffff16021790555060208201518160010155604082015181600201908051906020019061133e9291906121d5565b50606082015181600301908051906020019061135b9291906121d5565b50608082015181600401908051906020019061137892919061225b565b5060a08201518160050190805190602001906113959291906122bb565b50905050505050505050565b60007f01ffc9a7000000000000000000000000000000000000000000000000000000007bffffffffffffffffffffffffffffffffffffffffffffffffffffffff1916827bffffffffffffffffffffffffffffffffffffffffffffffffffffffff1916149050919050565b60008073ffffffffffffffffffffffffffffffffffffffff166002600084815260200190815260200160002060009054906101000a900473ffffffffffffffffffffffffffffffffffffffff1673ffffffffffffffffffffffffffffffffffffffff1614159050919050565b600033905090565b816004600083815260200190815260200160002060006101000a81548173ffffffffffffffffffffffffffffffffffffffff021916908373ffffffffffffffffffffffffffffffffffffffff160217905550808273ffffffffffffffffffffffffffffffffffffffff166114f283610966565b73ffffffffffffffffffffffffffffffffffffffff167f8c5be1e5ebec7d5bd14f71427d1e84f3dd0314c0f7b2291e5b200ac8c7c3b92560405160405180910390a45050565b60006115438261140b565b611582576040517f08c379a000000000000000000000000000000000000000000000000000000000815260040161157990612d04565b60405180910390fd5b600061158d83610966565b90508073ffffffffffffffffffffffffffffffffffffffff168473ffffffffffffffffffffffffffffffffffffffff1614806115fc57508373ffffffffffffffffffffffffffffffffffffffff166115e4846105a8565b73ffffffffffffffffffffffffffffffffffffffff16145b8061160d575061160c8185611013565b5b91505092915050565b8273ffffffffffffffffffffffffffffffffffffffff1661163682610966565b73ffffffffffffffffffffffffffffffffffffffff161461168c576040517f08c379a000000000000000000000000000000000000000000000000000000000815260040161168390612c84565b60405180910390fd5b600073ffffffffffffffffffffffffffffffffffffffff168273ffffffffffffffffffffffffffffffffffffffff1614156116fc576040517f08c379a00000000000000000000000000000000000000000000000000000000081526004016116f390612cc4565b60405180910390fd5b611707838383611e18565b61171260008261147f565b6001600360008573ffffffffffffffffffffffffffffffffffffffff1673ffffffffffffffffffffffffffffffffffffffff16815260200190815260200160002060008282546117629190612fbf565b925050819055506001600360008473ffffffffffffffffffffffffffffffffffffffff1673ffffffffffffffffffffffffffffffffffffffff16815260200190815260200160002060008282546117b99190612f38565b92505081905550816002600083815260200190815260200160002060006101000a81548173ffffffffffffffffffffffffffffffffffffffff021916908373ffffffffffffffffffffffffffffffffffffffff160217905550808273ffffffffffffffffffffffffffffffffffffffff168473ffffffffffffffffffffffffffffffffffffffff167fddf252ad1be2c89b69c2b068fc378daa952ba7f163c4a11628f55a4df523b3ef60405160405180910390a4611878838383611e1d565b505050565b600073ffffffffffffffffffffffffffffffffffffffff168273ffffffffffffffffffffffffffffffffffffffff1614156118ed576040517f08c379a00000000000000000000000000000000000000000000000000000000081526004016118e490612da4565b60405180910390fd5b6118f68161140b565b15611936576040517f08c379a000000000000000000000000000000000000000000000000000000000815260040161192d90612ca4565b60405180910390fd5b61194260008383611e18565b6001600360008473ffffffffffffffffffffffffffffffffffffffff1673ffffffffffffffffffffffffffffffffffffffff16815260200190815260200160002060008282546119929190612f38565b92505081905550816002600083815260200190815260200160002060006101000a81548173ffffffffffffffffffffffffffffffffffffffff021916908373ffffffffffffffffffffffffffffffffffffffff160217905550808273ffffffffffffffffffffffffffffffffffffffff16600073ffffffffffffffffffffffffffffffffffffffff167fddf252ad1be2c89b69c2b068fc378daa952ba7f163c4a11628f55a4df523b3ef60405160405180910390a4611a5360008383611e1d565b5050565b611a608261140b565b611a9f576040517f08c379a0000000000000000000000000000000000000000000000000000000008152600401611a9690612d84565b60405180910390fd5b80600660008481526020019081526020016000209080519060200190611ac69291906121d5565b505050565b6000600760009054906101000a900473ffffffffffffffffffffffffffffffffffffffff16905081600760006101000a81548173ffffffffffffffffffffffffffffffffffffffff021916908373ffffffffffffffffffffffffffffffffffffffff1602179055508173ffffffffffffffffffffffffffffffffffffffff168173ffffffffffffffffffffffffffffffffffffffff167f8be0079c531659141344cd1fd0a4f28419497f9722a3daafe3b4186f6b6457e060405160405180910390a35050565b8173ffffffffffffffffffffffffffffffffffffffff168373ffffffffffffffffffffffffffffffffffffffff161415611c00576040517f08c379a0000000000000000000000000000000000000000000000000000000008152600401611bf790612ce4565b60405180910390fd5b80600560008573ffffffffffffffffffffffffffffffffffffffff1673ffffffffffffffffffffffffffffffffffffffff16815260200190815260200160002060008473ffffffffffffffffffffffffffffffffffffffff1673ffffffffffffffffffffffffffffffffffffffff16815260200190815260200160002060006101000a81548160ff0219169083151502179055508173ffffffffffffffffffffffffffffffffffffffff168373ffffffffffffffffffffffffffffffffffffffff167f17307eab39ab6107e8899845ad3d59bd9653f200f220920489ca2b5937696c3183604051611cf19190612c07565b60405180910390a3505050565b611d09848484611616565b611d1584848484611e22565b611d54576040517f08c379a0000000000000000000000000000000000000000000000000000000008152600401611d4b90612c44565b60405180910390fd5b50505050565b606060405180602001604052806000815250905090565b6060611d7c8261140b565b611dbb576040517f08c379a0000000000000000000000000000000000000000000000000000000008152600401611db290612e24565b60405180910390fd5b6000611dc5611d5a565b90506000815111611de55760405180602001604052806000815250611e10565b80611def84611fb9565b604051602001611e00929190612b29565b6040516020818303038152906040525b915050919050565b505050565b505050565b6000611e438473ffffffffffffffffffffffffffffffffffffffff16612166565b15611fac578373ffffffffffffffffffffffffffffffffffffffff1663150b7a02611e6c611477565b8786866040518563ffffffff1660e01b8152600401611e8e9493929190612b68565b602060405180830381600087803b158015611ea857600080fd5b505af1925050508015611ed957506040513d601f19601f82011682018060405250810190611ed69190612674565b60015b611f5c573d8060008114611f09576040519150601f19603f3d011682016040523d82523d6000602084013e611f0e565b606091505b50600081511415611f54576040517f08c379a0000000000000000000000000000000000000000000000000000000008152600401611f4b90612c44565b60405180910390fd5b805181602001fd5b63150b7a0260e01b7bffffffffffffffffffffffffffffffffffffffffffffffffffffffff1916817bffffffffffffffffffffffffffffffffffffffffffffffffffffffff191614915050611fb1565b600190505b949350505050565b60606000821415612001576040518060400160405280600181526020017f30000000000000000000000000000000000000000000000000000000000000008152509050612161565b600082905060005b6000821461203357808061201c9061310c565b915050600a8261202c9190612f8e565b9150612009565b60008167ffffffffffffffff811115612075577f4e487b7100000000000000000000000000000000000000000000000000000000600052604160045260246000fd5b6040519080825280601f01601f1916602001820160405280156120a75781602001600182028036833780820191505090505b5090505b6000851461215a576001826120c09190612fbf565b9150600a856120cf9190613155565b60306120db9190612f38565b60f81b818381518110612117577f4e487b7100000000000000000000000000000000000000000000000000000000600052603260045260246000fd5b60200101907effffffffffffffffffffffffffffffffffffffffffffffffffffffffffffff1916908160001a905350600a856121539190612f8e565b94506120ab565b8093505050505b919050565b6000808273ffffffffffffffffffffffffffffffffffffffff163b119050919050565b6040518060c00160405280600073ffffffffffffffffffffffffffffffffffffffff16815260200160008152602001606081526020016060815260200160608152602001606081525090565b8280546121e1906130a9565b90600052602060002090601f016020900481019282612203576000855561224a565b82601f1061221c57805160ff191683800117855561224a565b8280016001018555821561224a579182015b8281111561224957825182559160200191906001019061222e565b5b5090506122579190612308565b5090565b8280548282559060005260206000209081019282156122aa579160200282015b828111156122a95782518290805190602001906122999291906121d5565b509160200191906001019061227b565b5b5090506122b79190612325565b5090565b8280548282559060005260206000209081019282156122f7579160200282015b828111156122f65782518255916020019190600101906122db565b5b5090506123049190612308565b5090565b5b80821115612321576000816000905550600101612309565b5090565b5b80821115612345576000818161233c9190612349565b50600101612326565b5090565b508054612355906130a9565b6000825580601f106123675750612386565b601f0160209004906000526020600020908101906123859190612308565b5b50565b600061239c61239784612ec4565b612e9f565b9050828152602081018484840111156123b457600080fd5b6123bf848285613067565b509392505050565b6000813590506123d681613749565b92915050565b6000813590506123eb81613760565b92915050565b60008135905061240081613777565b92915050565b60008151905061241581613777565b92915050565b600082601f83011261242c57600080fd5b813561243c848260208601612389565b91505092915050565b60008083601f84011261245757600080fd5b8235905067ffffffffffffffff81111561247057600080fd5b60208301915083600182028301111561248857600080fd5b9250929050565b60008135905061249e8161378e565b92915050565b6000602082840312156124b657600080fd5b60006124c4848285016123c7565b91505092915050565b600080604083850312156124e057600080fd5b60006124ee858286016123c7565b92505060206124ff858286016123c7565b9150509250929050565b60008060006060848603121561251e57600080fd5b600061252c868287016123c7565b935050602061253d868287016123c7565b925050604061254e8682870161248f565b9150509250925092565b6000806000806080858703121561256e57600080fd5b600061257c878288016123c7565b945050602061258d878288016123c7565b935050604061259e8782880161248f565b925050606085013567ffffffffffffffff8111156125bb57600080fd5b6125c78782880161241b565b91505092959194509250565b600080604083850312156125e657600080fd5b60006125f4858286016123c7565b9250506020612605858286016123dc565b9150509250929050565b6000806040838503121561262257600080fd5b6000612630858286016123c7565b92505060206126418582860161248f565b9150509250929050565b60006020828403121561265d57600080fd5b600061266b848285016123f1565b91505092915050565b60006020828403121561268657600080fd5b600061269484828501612406565b91505092915050565b6000602082840312156126af57600080fd5b60006126bd8482850161248f565b91505092915050565b600080604083850312156126d957600080fd5b60006126e78582860161248f565b92505060206126f8858286016123c7565b9150509250929050565b60008060006040848603121561271757600080fd5b60006127258682870161248f565b935050602084013567ffffffffffffffff81111561274257600080fd5b61274e86828701612445565b92509250509250925092565b60008060008060006060868803121561277257600080fd5b60006127808882890161248f565b955050602086013567ffffffffffffffff81111561279d57600080fd5b6127a988828901612445565b9450945050604086013567ffffffffffffffff8111156127c857600080fd5b6127d488828901612445565b92509250509295509295909350565b6127ec81612ff3565b82525050565b6127fb81613005565b82525050565b600061280c82612ef5565b6128168185612f0b565b9350612826818560208601613076565b61282f81613242565b840191505092915050565b600061284582612f00565b61284f8185612f1c565b935061285f818560208601613076565b61286881613242565b840191505092915050565b600061287e82612f00565b6128888185612f2d565b9350612898818560208601613076565b80840191505092915050565b60006128b1603283612f1c565b91506128bc82613253565b604082019050919050565b60006128d4602683612f1c565b91506128df826132a2565b604082019050919050565b60006128f7602583612f1c565b9150612902826132f1565b604082019050919050565b600061291a601c83612f1c565b915061292582613340565b602082019050919050565b600061293d602483612f1c565b915061294882613369565b604082019050919050565b6000612960601983612f1c565b915061296b826133b8565b602082019050919050565b6000612983602c83612f1c565b915061298e826133e1565b604082019050919050565b60006129a6603883612f1c565b91506129b182613430565b604082019050919050565b60006129c9602a83612f1c565b91506129d48261347f565b604082019050919050565b60006129ec602983612f1c565b91506129f7826134ce565b604082019050919050565b6000612a0f602e83612f1c565b9150612a1a8261351d565b604082019050919050565b6000612a32602083612f1c565b9150612a3d8261356c565b602082019050919050565b6000612a55603183612f1c565b9150612a6082613595565b604082019050919050565b6000612a78602c83612f1c565b9150612a83826135e4565b604082019050919050565b6000612a9b602083612f1c565b9150612aa682613633565b602082019050919050565b6000612abe602f83612f1c565b9150612ac98261365c565b604082019050919050565b6000612ae1602183612f1c565b9150612aec826136ab565b604082019050919050565b6000612b04603183612f1c565b9150612b0f826136fa565b604082019050919050565b612b238161305d565b82525050565b6000612b358285612873565b9150612b418284612873565b91508190509392505050565b6000602082019050612b6260008301846127e3565b92915050565b6000608082019050612b7d60008301876127e3565b612b8a60208301866127e3565b612b976040830185612b1a565b8181036060830152612ba98184612801565b905095945050505050565b6000608082019050612bc960008301876127e3565b612bd66020830186612b1a565b8181036040830152612be8818561283a565b90508181036060830152612bfc818461283a565b905095945050505050565b6000602082019050612c1c60008301846127f2565b92915050565b60006020820190508181036000830152612c3c818461283a565b905092915050565b60006020820190508181036000830152612c5d816128a4565b9050919050565b60006020820190508181036000830152612c7d816128c7565b9050919050565b60006020820190508181036000830152612c9d816128ea565b9050919050565b60006020820190508181036000830152612cbd8161290d565b9050919050565b60006020820190508181036000830152612cdd81612930565b9050919050565b60006020820190508181036000830152612cfd81612953565b9050919050565b60006020820190508181036000830152612d1d81612976565b9050919050565b60006020820190508181036000830152612d3d81612999565b9050919050565b60006020820190508181036000830152612d5d816129bc565b9050919050565b60006020820190508181036000830152612d7d816129df565b9050919050565b60006020820190508181036000830152612d9d81612a02565b9050919050565b60006020820190508181036000830152612dbd81612a25565b9050919050565b60006020820190508181036000830152612ddd81612a48565b9050919050565b60006020820190508181036000830152612dfd81612a6b565b9050919050565b60006020820190508181036000830152612e1d81612a8e565b9050919050565b60006020820190508181036000830152612e3d81612ab1565b9050919050565b60006020820190508181036000830152612e5d81612ad4565b9050919050565b60006020820190508181036000830152612e7d81612af7565b9050919050565b6000602082019050612e996000830184612b1a565b92915050565b6000612ea9612eba565b9050612eb582826130db565b919050565b6000604051905090565b600067ffffffffffffffff821115612edf57612ede613213565b5b612ee882613242565b9050602081019050919050565b600081519050919050565b600081519050919050565b600082825260208201905092915050565b600082825260208201905092915050565b600081905092915050565b6000612f438261305d565b9150612f4e8361305d565b9250827fffffffffffffffffffffffffffffffffffffffffffffffffffffffffffffffff03821115612f8357612f82613186565b5b828201905092915050565b6000612f998261305d565b9150612fa48361305d565b925082612fb457612fb36131b5565b5b828204905092915050565b6000612fca8261305d565b9150612fd58361305d565b925082821015612fe857612fe7613186565b5b828203905092915050565b6000612ffe8261303d565b9050919050565b60008115159050919050565b60007fffffffff0000000000000000000000000000000000000000000000000000000082169050919050565b600073ffffffffffffffffffffffffffffffffffffffff82169050919050565b6000819050919050565b82818337600083830152505050565b60005b83811015613094578082015181840152602081019050613079565b838111156130a3576000848401525b50505050565b600060028204905060018216806130c157607f821691505b602082108114156130d5576130d46131e4565b5b50919050565b6130e482613242565b810181811067ffffffffffffffff8211171561310357613102613213565b5b80604052505050565b60006131178261305d565b91507fffffffffffffffffffffffffffffffffffffffffffffffffffffffffffffffff82141561314a57613149613186565b5b600182019050919050565b60006131608261305d565b915061316b8361305d565b92508261317b5761317a6131b5565b5b828206905092915050565b7f4e487b7100000000000000000000000000000000000000000000000000000000600052601160045260246000fd5b7f4e487b7100000000000000000000000000000000000000000000000000000000600052601260045260246000fd5b7f4e487b7100000000000000000000000000000000000000000000000000000000600052602260045260246000fd5b7f4e487b7100000000000000000000000000000000000000000000000000000000600052604160045260246000fd5b6000601f19601f8301169050919050565b7f4552433732313a207472616e7366657220746f206e6f6e20455243373231526560008201527f63656976657220696d706c656d656e7465720000000000000000000000000000602082015250565b7f4f776e61626c653a206e6577206f776e657220697320746865207a65726f206160008201527f6464726573730000000000000000000000000000000000000000000000000000602082015250565b7f4552433732313a207472616e736665722066726f6d20696e636f72726563742060008201527f6f776e6572000000000000000000000000000000000000000000000000000000602082015250565b7f4552433732313a20746f6b656e20616c7265616479206d696e74656400000000600082015250565b7f4552433732313a207472616e7366657220746f20746865207a65726f2061646460008201527f7265737300000000000000000000000000000000000000000000000000000000602082015250565b7f4552433732313a20617070726f766520746f2063616c6c657200000000000000600082015250565b7f4552433732313a206f70657261746f7220717565727920666f72206e6f6e657860008201527f697374656e7420746f6b656e0000000000000000000000000000000000000000602082015250565b7f4552433732313a20617070726f76652063616c6c6572206973206e6f74206f7760008201527f6e6572206e6f7220617070726f76656420666f7220616c6c0000000000000000602082015250565b7f4552433732313a2062616c616e636520717565727920666f7220746865207a6560008201527f726f206164647265737300000000000000000000000000000000000000000000602082015250565b7f4552433732313a206f776e657220717565727920666f72206e6f6e657869737460008201527f656e7420746f6b656e0000000000000000000000000000000000000000000000602082015250565b7f45524337323155524953746f726167653a2055524920736574206f66206e6f6e60008201527f6578697374656e7420746f6b656e000000000000000000000000000000000000602082015250565b7f4552433732313a206d696e7420746f20746865207a65726f2061646472657373600082015250565b7f45524337323155524953746f726167653a2055524920717565727920666f722060008201527f6e6f6e6578697374656e7420746f6b656e000000000000000000000000000000602082015250565b7f4552433732313a20617070726f76656420717565727920666f72206e6f6e657860008201527f697374656e7420746f6b656e0000000000000000000000000000000000000000602082015250565b7f4f776e61626c653a2063616c6c6572206973206e6f7420746865206f776e6572600082015250565b7f4552433732314d657461646174613a2055524920717565727920666f72206e6f60008201527f6e6578697374656e7420746f6b656e0000000000000000000000000000000000602082015250565b7f4552433732313a20617070726f76616c20746f2063757272656e74206f776e6560008201527f7200000000000000000000000000000000000000000000000000000000000000602082015250565b7f4552433732313a207472616e736665722063616c6c6572206973206e6f74206f60008201527f776e6572206e6f7220617070726f766564000000000000000000000000000000602082015250565b61375281612ff3565b811461375d57600080fd5b50565b61376981613005565b811461377457600080fd5b50565b61378081613011565b811461378b57600080fd5b50565b6137978161305d565b81146137a257600080fd5b5056fea2646970667358221220aa4190ecacb1e2f2176db94363c08af24305de5775b34c06ba5b77da0fc3e01364736f6c63430008040033",
  "linkReferences": {},
  "deployedLinkReferences": {}
}